:020000040000FA
:02000000FD2BD6
:1000A80083122108803ADF0080305F02031D5E283A
:1000B80001302002031C080005308312A300C83059
:1000C800A200A20B6528A30B65280000FF3083124D
:1000D800A0070318A10AFF30A10754288312A4011E
:1000E800A501201C7D282208A4070318A50A2308B7
:1000F800A50701300310A20DA30DFF3E031D7E28A6
:1001080001300310A10CA00CFF3E031D8528200818
:100118002104031D75282508A1002408A000080053
:10012800031083124A0D4B0DCC004C08D200520824
:10013800031DA7280030CB000030CA000030C900DA
:100148000030C80008004808CC004908CD004A081B
:10015800CE004B08CF001F300310CF0CCE0CCD0CB7
:10016800CC0CFF3E031DB0284C08D0005008D1002D
:10017800CA17FF30C805FF30C905FF30CA0500306F
:10018800CB059630D202D21FDE285208803A973E1D
:10019800031C9E2801300310CB0CCA0CC90CC80CD8
:1001A800FF3E031DCF280130CC004C08D2070319AD
:1001B800F128CE282030520203189E28520803192D
:1001C800F1280130CC000310C80DC90DCA0DCB0DA4
:1001D800CC0BE7280130D202E228510803190800A5
:1001E800C809C909CA09CB09C80A0319C90A0319E0
:1001F800CA0A0319CB0A08008312A8002808031D9D
:10020800A31F16292009AA002109AB002209AC0066
:100218002309AD00AA0A0319AB0A0319AC0A03198A
:10022800AD0A1E292308AD002208AC002108AB0046
:100238002008AA002308220421042004031D2D29D4
:100248000030A3000030A2000030A1000030A00060
:1002580008009630A4002408A900FE302D050319D3
:100268005E290130A4002408A90701300310AD0C51
:10027800AC0CAB0CAA0CFF3E031D3A293129013006
:10028800A4002408A9070130AA0700300318013088
:10029800AB07003003180130AC07003003180130F9
:1002A800AD0701300310AD0CAC0CAB0CAA0CFF3E33
:1002B800031D5629FF302D050319722943290230E1
:1002C8002902031C74290130A9020130A40003107B
:1002D800AA0DAB0DAC0DAD0DA40B6B29AC1F63299A
:1002E80029187E29FF30AA05FF30AB057F30AC0501
:1002F800FF30AD050310A90C2908A400A501A6012B
:10030800A70118300310A40DA50DA60DA70DFF3EDB
:10031800031D86292408AA042508AB042608AC0472
:100328002708AD042808031DA31F9B29AD172D0816
:10033800A3002C08A2002B08A1002A08A00008008E
:1003480002308316870083128701203090008312C1
:100358008E018F0107140B30D300D30BB129B429B8
:1003680083120710871CB62910148718B929101092
:100378000F08D300D4015308D400D30153080E0446
:10038800A0005408A100A201A11BA2032208A300F7
:100398000130002183122308B5002208B400210887
:1003A800B3002008B2004230B1005830B000D93054
:1003B800AF001730AE005F2283123108CB0030083F
:1003C800CA002F08C9002E08C800942083124908C3
:1003D800D6004808D5005608803ADF0080305F0212
:1003E800031DF82901305502031C582A83125608A8
:1003F800803ADF0081305F02031D042A90305502E5
:100408000318582A83125608803ADF0080305F02AA
:10041800031D102A01305502031C212A8312560895
:10042800803ADF0080305F02031D1C2A0630550227
:100438000318212A83120715582A83125608803A6E
:10044800DF0080305F02031D2B2A06305502031C93
:10045800562A83125608803ADF0080305F02031D57
:10046800372A643055020318562A05308312A00033
:100478000030A1005608A3005508A200722083127C
:100488002108D6002008D50007155608A1005508F0
:10049800A0005420831207115608A1005508A00097
:1004A8005420582A831207110A308312A000003002
:1004B800A1005420AB29831235088039B6003608CC
:1004C800BF003508B6003607B7003708C600B41BAA
:1004D8004614460803197E2A460A031D7B2A003063
:1004E800B5000030B4000030B3000030B200B417DB
:1004F800B501862A0030B5000030B4000030B300E2
:100508000030B20031088039B6003608BF0631081D
:10051800B6003607B7003708C700B01B47144708AE
:100528000319A42A470A031DA12A0030B10000308C
:10053800B0000030AF000030AE00B017B101AC2AF7
:100548000030B1000030B0000030AF000030AE0025
:10055800310830042F042E04031DCB2A0030B500C7
:100568000030B4000030B3000030B2008030B40472
:100578007F30B5043F08B6003608B5043508B10029
:100588003408B0003308AF003208AE00080046084F
:10059800031DD72A0030B1000030B0000030AF0092
:1005A8000030AE0008004608B600B7013708B900A9
:1005B80047083602B800031CB90338087F3EC0005C
:1005C80039080318013E003EC1003508BE00340852
:1005D800BD003308BC003208BB000030B500003055
:1005E800B4000030B3000030B2000030C500003065
:1005F800C4000030C3000030C200C7011A304702EF
:1006080003184A2B47080319262B0130B60003109C
:10061800BB0DBC0DBD0DBE0DB60B0B2B0130B600CE
:100628000310B20DB30DB40DB50DB60B142BC51BCD
:1006380032140130B6000310C20DC30DC40DC50D30
:10064800B60B1F2B31083E02031D342B30083D0228
:10065800031D342B2F083C02031D342B2E083B02AC
:10066800031C452B45172E08BB022F08031C2F0F10
:10067800BC023008031C300FBD023108031C310FC7
:10068800BE020130B6003608C707022B3E083D04FB
:100698003C043B04031D4214B41B6D2B0130B6000F
:1006A8000310B20DB30DB40DB50DB60B542BC51B0D
:1006B80032140130B6000310C20DC30DC40DC50DB0
:1006C800B60B5F2BFF30C0070318C10AFF30C10704
:1006D800502BC701C51F862BFF304205B600FF30DF
:1006E8004305B700FF304405B8007F304505B90021
:1006F800390838043704360403193218842B862B3A
:10070800C701C70A47080319B82B0130B2070030E0
:1007180003180130B307003003180130B407003064
:1007280003180130B507351CB82B3208B60033085A
:10073800B7003408B8003508B9000130BA00390DDF
:10074800B90CB80CB70CB60CBA0BA32B3908B5000A
:100758003808B4003708B3003608B2000130C007C3
:100768000318C10A0030C1074108803ADF00803011
:100778005F02031DC12BFF304002031CD02BFF304A
:100788008312C0000030C1000030B5000030B40052
:100798000030B3000030B20083124108803ADF0015
:1007A80080305F02031DDA2B013040020318E82B6A
:1007B8008312C001C1010030B5000030B400003020
:1007C800B3000030B200BF0183124008B6003608FB
:1007D800C600461CF12BB417F52B7F30B60036083F
:1007E800B4054608B6000310360CB7003708B50044
:0607F800BE2A8301A429C2
:02400E00D2FFDF
:00000001FF
